:100FAD00A1A3A1A3B3F5CABCBBAFD6D0A1A3A1A3E6
:100FBD000041540D0A004F4B0D0A0041542B435074
:100FCD00494E3F0D0A0052454144590041542B43AF
:100FDD005245473F0D0A00435245473A20310041E3
:100FED00542B434D47463D310D0A0041542B43537D
:100FFD0043533D2247534D220D0A00CEC2B6C8A31E
:10100D00BA00A1E600CEC2B6C8B3ACB1EA00CEC2FA
:10101D00B6C8BACFCACA00484947482054454D50B2
:10102D003A2020256400434FC5A8B6C8A3BA004393
:10103D004FC5A8B6C8B3ACB1EA00434FC5A8B6C8F2
:10104D00BACFCACA004849474820434F3A20202505
:10105D00640041542B434D47533D2200220D0A009D
:10106D003E00415444003B0D0A00534F554E44453C
:10107D0052004F4B0031353933343832373839322D
:10108D000000000000000000000000000000000053
:10109D000000000000000000000000000000000043
:0910AD000000000000000000003A
:101533001429484947482054454D503A303000005B
:101543000000000000000424000000000128000146
:0F1553003D00023E0000014000C189022200005D
:100CB30075BCA043A20412176E1217E81217CD12C7
:100CC30016907F647E001216077BFF7A0F79ADE4DE
:100CD300FDFF121476754AFF754B0F754CC3E4750F
:100CE30050B8754F0B1211F5EF64014E60031217E4
:100CF30004121603754AFF754B0F754CD3E47550F8
:100D0300E8754F03F54EF54D75510A7BFF7A0F7960
:100D1300C8121202EF64014E600312170412160385
:100D2300754AFF754B0F754CE4E47550E8754F0336
:100D3300F54EF54D75510A7BFF7A0F79D9121202E0
:100D4300EF64014E6003121704121603754AFF7510
:100D53004B0F754CC3E47550E8754F03F54EF54DD5
:100D630075510A7BFF7A0F79EC121202EF64014E80
:100D73006003121704121603754AFF754B0F754C67
:100D8300C3E47550E8754F03F54EF54D75510A7B75
:100D9300FF7A0F79F8121202EF64014E6003121703
:100DA300041216031211578E3E8F3F7FE87E031203
:100DB30016071217CD1211578E3E8F3F7BFF7A1005
:100DC3007908E4FDFF121476AE3EAF3F7C037DE865
:100DD300120685EF4E6006EF2430FF800BE562B408
:100DE30001047F2D80027F20121814AE3EAF3F7C9A
:100DF300037DE81206857E007F64CFCDCFCECCCEB7
:100E0300120685EF2430FF121814AE3EAF3F7C006C
:100E13007D641206857E007F0ACFCDCFCECCCE1265
:100E23000685EF2430FF1218147F2E121814AE3EDD
:100E3300AF3F7C007D0A120685ED2430FF121814A3
:100E43007F201218147BFF7A10790F7D07E4FF12BD
:100E53001476E5627045AE3EAF3FFC7D0A1206850F
:100E6300C3EF941EEE9400400C7528017BFF7A10AB
:100E73007912E48009E4F5287BFF7A10791BFD7F62
:100E830001121476AE3EAF3F7C007D0A120685D375
:100E9300EF941DEE94005003E4F53DE528640170E2
:100EA30037E53D7033FE7F14FDFB7A007929120884
:100EB300187544FF754510754624AE3EAF3F7C0060
:100EC3007D0A1206858E478F487B007A00792912A6
:100ED30008A01210B685283DE4FF1214BF8E228F9E
:100EE300237BFF7A107933E4FD7F02121476AE225E
:100EF300AF237C007D64120673EE1313543FF52376
:100F0300752200AE22FF1206857E007F0ACFCDCF69
:100F1300CECCCE120685EF2430FF121814AE22AFCA
:100F2300237C007D0A120685ED2430FF121814C3BA
:100F3300E523941EE5229400400C7528017BFF7A7B
:100F430010793CE48009E4F5287BFF7A107947FDAA
:100F53007F03121476AE3EAF3F7C007D0A120685F6
:100F6300D3EF941DEE94005003E4F53DE5286401AE
:100F7300702EE53D702AFE7F14FDFB7A007929125D
:100F830008187544FF754510754652852247852319
:100F9300487B007A0079291208A01210B685283DF3
:0A0FA3007FF47E01121607020DB85C
:1014BF007401A807088002C333D8FCF59DE4F5BD7D
:1014CF00F5BEE5BC54E044084FF5BC000000007FBA
:1014DF00FAE5BC30E41053BCEF00000000AFBDEFE5
:0C14EF00FEADBEEDFF22DFE97E047F00B1
:0114FB0022CE
:0F10B6007544007545007546297BFF7A107982D5
:0610C5008B418A428943C1
:1010CB0078647C007D017BFF7A10798E7E007F1423
:1010DB001205F57E007F147D007B017A0079641286
:1010EB00081878647C007D017BFF7A10795F12070A
:1010FB00FB85414A85424B85434C7B017A007964E1
:10110B0012141E754AFF754B10754C697B017A00E2
:10111B00796412141E754AFF754B10754C6DE4758E
:10112B0050B8754F0BF54EF54D75510A7B017A0092
:10113B007964121202EF64014E6003121704AB4480
:0C114B00AA45A9461216DF7F1A021845BB
:061318008B088A09890A16
:10131E00780B7C007D007BFF7A1079A27E007F1413
:10132E001205F57E007F147D007B007A00790B128A
:10133E000818780B7C007D007BFF7A10796F1207FE
:10134E00FB85084A85094B850A4C7B007A00790B90
:10135E0012141E754AFF754B10754C737B007A0084
:10136E00790B12141E754AFF754B10754C77E47588
:10137E005010754F27F54EF54D75510AFB7A0079D1
:0D138E000B121202EF64014E6003121704EF
:01139B00222F
:10170400754AFF754B10754C7FE4755064F54F12A4
:1017140011F5EF64014E70031218547FC87E001255
:04172400160780DC48
:031854000200008F
:0D11F500F54EF54D75510A7BFF7A0F79BE5E
:061202008B478A48894970
:10120800121801E4F552E552C395515070AB47AA44
:1012180048A9491216DFE4F527F526F525F524AF88
:1012280050AE4FAD4EAC4DAB27AA26A925A824C376
:101238001206E8503B7F647E00121607E5272464F7
:10124800F527E43526F526E43525F525E43524F596
:1012580024854A56854B57854C587B017A0079007E
:1012680012139CE94A4B60B71218017E007F0122D5
:10127800E4F527F526F525F524055280891218018D
:03128800E4FEFF82
:01128B002240
:041603007F0A7E00DC
:10160700E4FDFCE4FBFAC3EB9FEA9E501390000055
:10161700A3E582647B458370F70BBB00010A80E674
:0B1627000DBD00010CED640A4C70D8F2
:011632002295
:03156200011F0066
:10176E0053877F759850438E40538EFE53890F4397
:10177E008920758BFD758DFDC2ABD28ED2AFD2ACEA
:01178E002238
:081845008F993099FDC2992230
:1016DF008B538A548955AB53AA54A95512061B60D4
:1016EF00130555E5557002055414F912061BFF1228
:0516FF00184580E22205
:1017AF008B5F8A6089618B568A5789587B017A00D3
:0E17BF00790012139CE94A4B6002D322C32228
:101801007E007F647D007B017A007900120818E474
:03181100F51F229E
:030023000215695A
:10156900C0E0C083C082C0D0C2AC30981CC298749D
:1015790000251FF582E43400F583E599F0051FE5A0
:101589001FC394644003751F00D2ACD0D0D082D061
:0415990083D0E032E9
:100003008081828384858687909192939495969735
:1000130088898A8B8C8D8E8F98999A9B9C9D9E9FA5
:0F174C0012175BEC54F0FF12175BECC454F0FF64
:10175B00E4FEC2A4EF25E0FF92A3D2A4C2A40EBE66
:02176B0008F084
:01176D002259
:10159D00E4FFFEFDEE25E0FEC2A4D2A4C2A430A35A
:1015AD00010E0DBD08EEE4FDEF25E0FFC2A4D2A4AF
:1015BD00C2A430A3010F0DBD08EEEF540FFFEE5482
:0315CD00F02FFFFD
:0115D00022F8
:0D1823007FFC12175B12159DEF20E7F422E9
:1016630075F008E541A42542F582E435F0F583E5FC
:0E167300822403F582E5833400F583E493FFBF
:0F168100AC07D2A21218237FF812174CC2A22274
:0F181400AC07D2A21218237FFA12174CC2A222DD
:1017E8007F301216817F031216817F0C1216817FBB
:0917F800011216817F0602168120
:1015D100AB07AA05EB14600C14600D14600E240314
:1015E1007B80800A7B9080067B8880027B985302F7
:1015F100077F30121681EA2BFF121681EA2BFF02B8
:02160100168150
:1017CD007F301216817F80121681E4FB7F20121864
:0B17DD00140BBB40F7E4FDFF0215D128
:101690007F341216817F36121681E4FBEB4480FF03
:1016A0001216817F80121681E4FAE4FF1218140AE0
:0716B000BA20F70BBB20E597
:0116B7002210
:101476008F418D427F3012168112166312061B6051
:1014860037E542B40805E4F5420541E541B40403F5
:10149600E4F54112166312061BFF12181474012993
:1014A600F9E43AFA12061BFF60D2121814740129E5
:0914B600F9E43AFA054280C4226F
:0315650001620020
:09183B00007F097E97DEFEDFFC50
:011844002281
:06184D0000007F6BDFFECE
:011853002272
:0A18300000007F037E22DEFEDFFCD5
:01183A00228B
:10178F00E4FDFC0DBD00010CED640C4C70F5E4FDA7
:0F179F00FCC3ED9FEC9E50070DBD00010C80F2C6
:0117AE002218
:02163300AB0703
:10163500E4FAC2B400000000000000000000EB1353
:1016450092B4EBC313FB7F067E0012178FD2B40052
:0D1655000000000000000000000ABA08D5E7
:011662002265
:1014FC00E4FAC2B400000000000000000000D2B406
:10150C0000000000000000000000EBC313FB30B42F
:10151C0005430380800353037F7F067E0012178FE1
:06152C000ABA08CEAF036D
:011532002296
:10172800D200D2B400000000000000000000C2B4E3
:1017380012183BD2B412184DA2B49200121830D22B
:03174800B4A20048
:01174B00227B
:1011570012172850030211F07FCC1216337F441266
:10116700163312172850030211F07FCC1216337F63
:10117700BE1216331214FCA9071214FC7583008FD4
:1011870082E582758200F583E9F582D394FFE583D2
:10119700940F4016756201E582F4FFE583F4FEEFD4
:1011A7002401F582E43EF5838003E4F562AD82AC69
:1011B70083E4120229E4FBFA7980783D12011E8F3D
:1011C700448E438D428C41E4FFFE7D207C41AB443D
:1011D700AA43A942A84112011EE4FBFAF9783F127B
:0D11E700002D1202628E838F82AF82AE83D4
:0111F40022D8
:100026000202CEE86480F8E933E83360110460F038
:10003600ED33EC337009E8FCE9FDEAFEEBFF220440
:1000460060DED3EB9FEA9EE99DE8C2E78CF0C2F73B
:1000560095F0400CE8CCF8E9CDF9EACEFAEBCFFB07
:1000660012029985D0F05804700320D5B3E80470C5
:10007600075002B2D50202D892D5EC0460F7E4CC60
:10008600C0E0C398F8603B94186008400DD0E0FBD0
:100096000202B0E4FBFAC9FC8028E830E406E4C9B1
:1000A600FBE4CAFCE830E305E4C9CACBFCE8540724
:1000B6006010F8C3E913F9EA13FAEB13FBEC13FC2F
:1000C600D8F130F52FC3E49CFCEF9BFFEE9AFEEDD2
:1000D60099FDD0E0FBEF4E4D4C701222DB0302027D
:1000E600D5EC2CFCEF33FFEE33FEED33FDED30E7C0
:1000F600EB0202B0EF2BFFEE3AFEED39FDD0E0FB4E
:1001060050130BBB00030202D8ED13FDEE13FEEFF6
:0801160013FFEC13FC0202B020
:10011E00EC4D6011E8497017ED33EC3304600DE4DB
:10012E00FCFFFEFD22E933E8330470F80202CE1222
:10013E00029958046009E4CC248150062850090223
:10014E0002D82840030202D5C0E0EB4A7044B980C1
:10015E0006D0E0FB0202C4EF4E701CBD8008EBFF20
:10016E00EAFEE9FD80EBE98DF0A4FEE5F002020760
:10017E00E9CDF9EAFEEBFFEF89F0A4FCE5F0CE89BC
:10018E00F0A42EFFE435F0CD89F0A42DFEE435F079
:10019E008067EF4E7005BD80D780C3EF8BF0A4ACA7
:1001AE00F0EE8BF0A42CFCE435F0F8EF8AF0A42CE2
:1001BE00E5F038FCE433CB8DF0A42CFCE5F03BF8F5
:1001CE00EE8AF0A42CFCE5F038F8E433CF89F0A4E5
:1001DE002CFCE5F038CF3400CE89F0A42FFFE5F0EB
:1001EE003EFEE433C98DF0A42EFEE5F039CD8AF043
:1001FE00A42FFFE5F03EFEE43DFD33D0E0FB5007BB
:10020E000BBB000F0202D8EC2CFCEF33FFEE33FEDB
:06021E00ED33FD0202B009
:1002240075F020800E75F010800575F0087D007E55
:10023400007F003392D530D5031206DAEC33401038
:10024400EF33FFEE33FEED33FDEC33FCD5F0ED225E
:0E025400E5F0247EA2D513CC92E7CDCEFF229A
:10026200EDD2E7CD33EC3392D524814006E4FFFE94
:10027200FDFC22FCE4CFCECDCC24E0501174FF80F3
:10028200EDC3CC13CCCD13CDCE13CECF13CF047090
:07029200F030D5DE0206DAB0
:10084400E5582444F8E605582278413007027844F4
:10085400E475F0011206F902061B2000EB7F2ED28C
:10086400008018EF540F2490D43440D4FF30040B8C
:10087400EF24BFB41A0050032461FFE55960021548
:1008840059055CE55C7002055B30070D7841E47541
:10089400F0011206F9EF0206610216B87403D207DA
:1008A4008003E4C207F5588B418A428943E4F55931
:1008B400F55BF55CE55960077F2012087F80F575CC
:1008C4005AFFC201C200C202C203C205C206C20864
:1008D40012084DFF700D3007057F00120890AF5CC1
:1008E400AE5B22B4255FC2D5C20412084DFF24D0EA
:1008F400B40A00501A75F00A785930D50508B6FFC5
:100904000106C6A426F620D5047002D20380D92499
:10091400CFB41A00EF5004C2E5D204020B7DD20119
:1009240080C6D20080C0D20280BCD2D580BAD205A3
:1009340080B47F2012087F2002077401B55900405B
:10094400F1120844FF12087F0208B8D208D20680C8
:1009540095120844FB120844FA120844F94A4B70F1
:100964000679747A0C7BFF20022EE559602A7E00FA
:100974008E8275830012063460060EEE655A70F09E
:10098400C2D5EBC0E0EAC0E0E9C0E0EE120BDDD076
:10099400E0F9D0E0FAD0E0FB12061BFF60AAEBC03E
:1009A400E0EAC0E0E9C0E012087FD0E02401F9D019
:1009B400E03400FAD0E0FBE55A0460DCD55AD98073
:1009C40087D20280A2120BC060F7E55A70010412AC
:1009D40002E3A95A600DE55A600914F55A120C672E
:1009E400EF60F3EA30E702F404C3995077EAF425A0
:1009F4005A0430E701E404F55A800D120BC060C1BB
:100A0400EA055A255A1202E3EA7857F630E701E478
:100A1400255A04D55A0420050114120BDDE4C0E064
:100A2400120C677857E6601320E70714F61208677C
:100A3400802204F6D0E014C0E07F00120867E55A73
:100A4400600712085E155A800B30050312085ED049
:100A5400E00208B8D0E00480C5120BC060A0E55ADB
:100A6400041202E37857EAF6E55A2005026001040D
:050A74002404120BDD5B
:100A790074FF04C0E0120C67120867E55A200502EA
:100A8900600312085ED0E0B55AE87F451208717814
:100A990057E67F2B30E7047F2DF404C0E012087F6E
:100AA900D0E075F00A84C0F0120868D0E012086836
:100AB9000208B8791080027908C206C2088008D2F3
:100AC900D5790A8004790AC2D5E55A047002F55A23
:100AD900E4FAFDFEFF120844FC7B0820011312080A
:100AE90044FD7B1030000A120844FE120844FF7BC3
:100AF90020EC3382D592D55013C3E43000069FFF12
:100B0900E49EFEE42001039DFDE49CFCE4CBF8C2D5
:100B190001EC700CCFCECDCCE824F8F870F3801737
:100B2900C3EF33FFEE33FEED33FDEC33FCEB33FB68
:100B3900994002FB0FD8E9EB300105F8D0E0C44831
:100B4900B201C0E00AEC4D4E4F78207B0070C2EA3A
:100B5900B55A0040BCC0E0120BDFD0F0D0E0200154
:100B690004C4C0E0C4B201C0F0120868D0F0D5F0E6
:100B7900EB0208B81207090955530ABC5809264C53
:100B89000922420AC04F0AC8440AC849093B430A14
:100B9900CE5509FF460A5D4509C9470C9450092AF3
:100BA9002D092E2E09512B093223094F200C7D2A9C
:100BB90008EA4800000949E55AB4FF03755A0612C4
:100BC9000844FC120844FD120844FE120844FF7848
:100BD90050020312790AA2D5200314300509B9106D
:100BE900020404B9080104A2D52006025001042018
:100BF90002689202B559005034C0E07F20300319D1
:100C09007F30A20272067205500F120C36C202C260
:100C190006C205C2087F30800F300503E9C0E01223
:100C2900087F300503D0E0F9D0E0B559CC3005177D
:100C39007F30B9100C12087F7F583004077F788005
:100C490003B9080312087F3002057F2D02087F7F50
:100C5900202008F87F2B2006F322920280CF7F0004
:100C6900B4070050052450F8E6FF22286E756C6C15
:100C79002900D2011208443001F8C201785930D54F
:100C89000108F60208EA2D50434958120844240382
:100C9900B405004001E4900C8F93120870743A1265
:0A0CA9000870D203755904020ABC5A
:10029900E9D2E7C933E833F892D5EDD2E7CD33ECAB
:0702A90033FC5002B2D52224
:1002B000EC30E7100FBF000C0EBE00080DBD0004AF
:1002C0000BEB6014A2D5EB13FCED92E7FD2274FF5B
:1002D000FCFDFEFF22E480F8A2D574FF13FC7D80B4
:0302E000E480EFC8
:1002E300F920E72824F950037907E4F42402FB18E2
:1002F300DBFDE624FB5014E9600DE4F618E604F692
:0F030300B40A08E4F6D9F57401F60A22C2D5222D
:10031200ED33EC3392D5FA602AB4FF33EDC2E77BBA
:10032200FF60067A037937E4227A03794020D50404
:100332007A03793B224E614E002B494E46002D49ED
:100342004E4600E47A08F608DAFC7B00740722E8DD
:10035200C0E0ECC0E0EDC0E0EEC0E0EFC0E0EA7566
:10036200F010A4CAABF075F04DA42BFBE435F0FC01
:10037200EA2410FAEB34C5FBEC34D9FCEDC2E7FFFA
:1003820075F056A4F42411C5F0F434C58FF0A42AF4
:10039200E5F03BE43CF620E7141204E5D0E0FFD0A0
:1003A200E0FED0E0FDD0E0FC1204188014F4041248
:1003B20004E5D0E0FFD0E0FED0E0FDD0E0FC120189
:1003C2001ED0E0F8E6FAEDD2E7CD33EC332482FB1F
:1003D200E4C3CF33CFCE33CECD33CD33DBF37B0784
:1003E20075F00A846004F6081B0AE5F0F6088FF03F
:1003F200740AA4FFACF08EF0740AA42CFEACF05088
:10040200010C8DF0740AA42CFDE435F0F608DBDE55
:030412007407224A
:100415000202D8EC5D046005E8590470030202CEBF
:10042500120299580460F6EC4860F2EC7004FDFE87
:10043500FF22C860DB2481C85009C39860025006BA
:100445000202D59850CAF582E9294B4A7005AB825C
:100455000202C475F0007C1A7880C3EF9BEE9AED1A
:1004650099400DC3EF9BFFEE9AFEED99FDE842F032
:10047500DC23ACF0D0E0FFD0E0FED0E0FDAB822085
:10048500E7101BEB60BAEC2CFCEF33FFEE33FEED0F
:1004950033FD0202B0E803F830E705C0F075F0005F
:1004A500EF2FFFEE33FEED33FD40B830E7C280AAF3
:1004B5003F8000004120000042C80000447A00004F
:1004C500461C400047C35000497424004B189680D1
:1004D5004CBEBC205A0E1BCA6753C21C749DC5AEC8
:1004E500FB60065407601C2323120513EB54386088
:1004F500091204FF12050E12011EECF8EDF9EEFAD1
:10050500EFCB22EB12050E80F1543803241C900426
:10051500B5FE93FC0EEE93FD0EEE930ECE93FF22E9
:0300000002128C5D
:0C128C00787FE4F6D8FD7581620212D371
:10052500E709F608DFFA8046E709F208DFFA803EB8
:1005350088828C83E709F0A3DFFA8032E309F608A5
:10054500DFFA8078E309F208DFFA807088828C830D
:10055500E309F0A3DFFA806489828A83E0A3F608C1
:10056500DFFA805889828A83E0A3F208DFFA804C9B
:1005750080D280FA80C680D4806980F28033801072
:1005850080A680EA809A80A880DA80E280CA8033DB
:1005950089828A83ECFAE493A3C8C582C8CCC58353
:1005A500CCF0A3C8C582C8CCC583CCDFE9DEE78023
:1005B5000D89828A83E493A3F608DFF9ECFAA9F0A2
:1005C500EDFB2289828A83ECFAE0A3C8C582C8CCF8
:1005D500C583CCF0A3C8C582C8CCC583CCDFEADE11
:1005E500E880DB89828A83E493A3F208DFF980CC73
:1005F50088F0EF60010E4E60C388F0ED2402B4046C
:100605000050B9F582EB2402B4040050AF23234512
:06061500822390057573BD
:10061B00BB010689828A83E0225002E722BBFE02DD
:09062B00E32289828A83E4932210
:10063400BB010CE58229F582E5833AF583E022507B
:1006440006E92582F8E622BBFE06E92582F8E222C5
:0D065400E58229F582E5833AF583E49322DF
:10066100BB010689828A83F0225002F722BBFE0178
:02067100F32272
:10067300EF8DF0A4A8F0CF8CF0A428CE8DF0A42E9B
:02068300FE2255
:10068500BC000BBE0029EF8DF084FFADF022E4CC59
:10069500F875F008EF2FFFEE33FEEC33FCEE9DEC22
:1006A500984005FCEE9DFE0FD5F0E9E4CEFD22ED68
:1006B500F8F5F0EE8420D21CFEADF075F008EF2FB2
:1006C500FFED33FD4007985006D5F0F222C398FDA3
:0506D5000FD5F0EA2240
:0E06DA00C3E49FFFE49EFEE49DFDE49CFC2231
:1006E800EB9FF5F0EA9E42F0E99D42F0E89C45F068
:0106F80022DF
:1006F900FAE6FB0808E6F925F0F618E6CA3AF62202
:10070900D083D082F8E4937012740193700DA3A37F
:1007190093F8740193F5828883E473740293686093
:06072900EFA3A3A380DF93
:1016B800EFB40A07740D1216C3740A309811A8996A
:1016C800B8130CC2983098FDA899C298B811F63092
:0716D80099FDC299F599226A
:10141E008B478A4889498B4D8A4E894FAB47054980
:10142E00E549AA487002054814F912061B70ED74BE
:10143E00FF2549F54974FF3548F548AB4A054CE59B
:10144E004CAA4B7002054B14F912061BFFAB470555
:10145E0049E549AA487002054814F9EF1206617071
:08146E00DAAB4DAA4EA94F2292
:10072F00E709F60870FA8046E709F20870FA803E8A
:10073F0088828C83E709F0A370FA807EE309F608BC
:10074F0070FA8076E309F20870FA806E88828C83E3
:10075F00E309F0A370FA806289828A83E0A3F60826
:10076F0070FA805689828A83E0A3F20870FA804A71
:10077F0080D280FA80C680D4806580F2803180106C
:10078F0080A680EA809A80A880DA80E280CA8031D1
:10079F0089828A83ECFAE493A3C8C582C8CCC58347
:1007AF00CCF0A3C8C582C8CCC583CC70E9800D89B5
:1007BF00828A83E493A3F60870F9ECFAA9F0EDFBB3
:1007CF002289828A83ECFAE0A3C8C582C8CCC5838C
:1007DF00CCF0A3C8C582C8CCC583CC70EA80DD89B4
:1007EF00828A83E493A3F20870F980CE88F0ED2417
:1007FF0002B4040050C4F582EB2402B4040050BAD2
:09080F00232345822390077F7327
:10139C008B538A548955AB56AA57A95812061B6011
:1013AC0063AB53AA54A95512061B605F8556598529
:1013BC00575A85585B8B5C8A5D895EAB59AA5AA9D2
:1013CC005B12061BFF6023AB5CAA5DA95E12061BB9
:1013DC006F701704255BF55BE4355AF55A740125DB
:1013EC005EF55EE4355DF55D80D1AB59AA5AA95B1B
:1013FC0012061B7002800D74012555F555E4355409
:10140C00F554809DAB53AA54A955227B007A0079E0
:02141C000022AC
:10081800EF4E6012EF60010EEDBB010B89828A83F7
:10082800F0A3DFFCDEFA2289F05007F709DFFCA904
:0C083800F022BBFEFCF309DFFCA9F0225B
:10129800020CB3E493A3F8E493A34003F68001F2AD
:1012A80008DFF48029E493A3F85407240CC8C33357
:1012B800C4540F4420C8834004F456800146F6DF26
:1012C800E4800B0102040810204080901533E47E6E
:1012D800019360BCA3FF543F30E509541FFEE4931B
:1012E800A360010ECF54C025E060A840B8E493A3E2
:1012F800FAE493A3F8E493A3C8C582C8CAC583CA0D
:10130800F0A3C8C582C8CAC583CADFE9DEE780BEC4
:011568000082
:00000001FF
